{
  "_format": "hh-sol-artifact-1",
  "contractName": "TokensRegistry",
  "sourceName": "contracts/TokensRegistry.sol",
  "abi": [
    {
      "inputs": [
        {
          "internalType": "address",
          "name": "adminAccount",
          "type": "address"
        },
        {
          "internalType": "string",
          "name": "name_",
          "type": "string"
        },
        {
          "internalType": "string",
          "name": "symbol_",
          "type": "string"
        }
      ],
      "stateMutability": "nonpayable",
      "type": "constructor"
    },
    {
      "anonymous": false,
      "inputs": [
        {
          "indexed": true,
          "internalType": "address",
          "name": "owner",
          "type": "address"
        },
        {
          "indexed": true,
          "internalType": "address",
          "name": "approved",
          "type": "address"
        },
        {
          "indexed": true,
          "internalType": "uint256",
          "name": "tokenId",
          "type": "uint256"
        }
      ],
      "name": "Approval",
      "type": "event"
    },
    {
      "anonymous": false,
      "inputs": [
        {
          "indexed": true,
          "internalType": "address",
          "name": "owner",
          "type": "address"
        },
        {
          "indexed": true,
          "internalType": "address",
          "name": "operator",
          "type": "address"
        },
        {
          "indexed": false,
          "internalType": "bool",
          "name": "approved",
          "type": "bool"
        }
      ],
      "name": "ApprovalForAll",
      "type": "event"
    },
    {
      "anonymous": false,
      "inputs": [
        {
          "indexed": true,
          "internalType": "bytes32",
          "name": "role",
          "type": "bytes32"
        },
        {
          "indexed": true,
          "internalType": "bytes32",
          "name": "previousAdminRole",
          "type": "bytes32"
        },
        {
          "indexed": true,
          "internalType": "bytes32",
          "name": "newAdminRole",
          "type": "bytes32"
        }
      ],
      "name": "RoleAdminChanged",
      "type": "event"
    },
    {
      "anonymous": false,
      "inputs": [
        {
          "indexed": true,
          "internalType": "bytes32",
          "name": "role",
          "type": "bytes32"
        },
        {
          "indexed": true,
          "internalType": "address",
          "name": "account",
          "type": "address"
        },
        {
          "indexed": true,
          "internalType": "address",
          "name": "sender",
          "type": "address"
        }
      ],
      "name": "RoleGranted",
      "type": "event"
    },
    {
      "anonymous": false,
      "inputs": [
        {
          "indexed": true,
          "internalType": "bytes32",
          "name": "role",
          "type": "bytes32"
        },
        {
          "indexed": true,
          "internalType": "address",
          "name": "account",
          "type": "address"
        },
        {
          "indexed": true,
          "internalType": "address",
          "name": "sender",
          "type": "address"
        }
      ],
      "name": "RoleRevoked",
      "type": "event"
    },
    {
      "anonymous": false,
      "inputs": [
        {
          "indexed": true,
          "internalType": "address",
          "name": "from",
          "type": "address"
        },
        {
          "indexed": true,
          "internalType": "address",
          "name": "to",
          "type": "address"
        },
        {
          "indexed": true,
          "internalType": "uint256",
          "name": "tokenId",
          "type": "uint256"
        }
      ],
      "name": "Transfer",
      "type": "event"
    },
    {
      "inputs": [],
      "name": "DEFAULT_ADMIN_ROLE",
      "outputs": [
        {
          "internalType": "bytes32",
          "name": "",
          "type": "bytes32"
        }
      ],
      "stateMutability": "view",
      "type": "function"
    },
    {
      "inputs": [],
      "name": "MINTER_ROLE",
      "outputs": [
        {
          "internalType": "bytes32",
          "name": "",
          "type": "bytes32"
        }
      ],
      "stateMutability": "view",
      "type": "function"
    },
    {
      "inputs": [
        {
          "internalType": "address",
          "name": "to",
          "type": "address"
        },
        {
          "internalType": "uint256",
          "name": "tokenId",
          "type": "uint256"
        }
      ],
      "name": "approve",
      "outputs": [],
      "stateMutability": "nonpayable",
      "type": "function"
    },
    {
      "inputs": [
        {
          "internalType": "address",
          "name": "owner",
          "type": "address"
        }
      ],
      "name": "balanceOf",
      "outputs": [
        {
          "internalType": "uint256",
          "name": "",
          "type": "uint256"
        }
      ],
      "stateMutability": "view",
      "type": "function"
    },
    {
      "inputs": [
        {
          "internalType": "address",
          "name": "owner",
          "type": "address"
        },
        {
          "internalType": "string",
          "name": "_tokenURI",
          "type": "string"
        }
      ],
      "name": "createToken",
      "outputs": [
        {
          "internalType": "uint256",
          "name": "",
          "type": "uint256"
        }
      ],
      "stateMutability": "nonpayable",
      "type": "function"
    },
    {
      "inputs": [
        {
          "internalType": "address",
          "name": "accountAddress",
          "type": "address"
        }
      ],
      "name": "getAccountTokens",
      "outputs": [
        {
          "internalType": "uint256[]",
          "name": "",
          "type": "uint256[]"
        }
      ],
      "stateMutability": "view",
      "type": "function"
    },
    {
      "inputs": [
        {
          "internalType": "uint256",
          "name": "tokenId",
          "type": "uint256"
        }
      ],
      "name": "getApproved",
      "outputs": [
        {
          "internalType": "address",
          "name": "",
          "type": "address"
        }
      ],
      "stateMutability": "view",
      "type": "function"
    },
    {
      "inputs": [
        {
          "internalType": "bytes32",
          "name": "role",
          "type": "bytes32"
        }
      ],
      "name": "getRoleAdmin",
      "outputs": [
        {
          "internalType": "bytes32",
          "name": "",
          "type": "bytes32"
        }
      ],
      "stateMutability": "view",
      "type": "function"
    },
    {
      "inputs": [],
      "name": "getTokensNumber",
      "outputs": [
        {
          "internalType": "uint256",
          "name": "",
          "type": "uint256"
        }
      ],
      "stateMutability": "view",
      "type": "function"
    },
    {
      "inputs": [
        {
          "internalType": "bytes32",
          "name": "role",
          "type": "bytes32"
        },
        {
          "internalType": "address",
          "name": "account",
          "type": "address"
        }
      ],
      "name": "grantRole",
      "outputs": [],
      "stateMutability": "nonpayable",
      "type": "function"
    },
    {
      "inputs": [
        {
          "internalType": "bytes32",
          "name": "role",
          "type": "bytes32"
        },
        {
          "internalType": "address",
          "name": "account",
          "type": "address"
        }
      ],
      "name": "hasRole",
      "outputs": [
        {
          "internalType": "bool",
          "name": "",
          "type": "bool"
        }
      ],
      "stateMutability": "view",
      "type": "function"
    },
    {
      "inputs": [
        {
          "internalType": "address",
          "name": "owner",
          "type": "address"
        },
        {
          "internalType": "address",
          "name": "operator",
          "type": "address"
        }
      ],
      "name": "isApprovedForAll",
      "outputs": [
        {
          "internalType": "bool",
          "name": "",
          "type": "bool"
        }
      ],
      "stateMutability": "view",
      "type": "function"
    },
    {
      "inputs": [],
      "name": "name",
      "outputs": [
        {
          "internalType": "string",
          "name": "",
          "type": "string"
        }
      ],
      "stateMutability": "view",
      "type": "function"
    },
    {
      "inputs": [
        {
          "internalType": "uint256",
          "name": "tokenId",
          "type": "uint256"
        }
      ],
      "name": "ownerOf",
      "outputs": [
        {
          "internalType": "address",
          "name": "",
          "type": "address"
        }
      ],
      "stateMutability": "view",
      "type": "function"
    },
    {
      "inputs": [
        {
          "internalType": "bytes32",
          "name": "role",
          "type": "bytes32"
        },
        {
          "internalType": "address",
          "name": "account",
          "type": "address"
        }
      ],
      "name": "renounceRole",
      "outputs": [],
      "stateMutability": "nonpayable",
      "type": "function"
    },
    {
      "inputs": [
        {
          "internalType": "bytes32",
          "name": "role",
          "type": "bytes32"
        },
        {
          "internalType": "address",
          "name": "account",
          "type": "address"
        }
      ],
      "name": "revokeRole",
      "outputs": [],
      "stateMutability": "nonpayable",
      "type": "function"
    },
    {
      "inputs": [
        {
          "internalType": "address",
          "name": "from",
          "type": "address"
        },
        {
          "internalType": "address",
          "name": "to",
          "type": "address"
        },
        {
          "internalType": "uint256",
          "name": "tokenId",
          "type": "uint256"
        }
      ],
      "name": "safeTransferFrom",
      "outputs": [],
      "stateMutability": "nonpayable",
      "type": "function"
    },
    {
      "inputs": [
        {
          "internalType": "address",
          "name": "from",
          "type": "address"
        },
        {
          "internalType": "address",
          "name": "to",
          "type": "address"
        },
        {
          "internalType": "uint256",
          "name": "tokenId",
          "type": "uint256"
        },
        {
          "internalType": "bytes",
          "name": "_data",
          "type": "bytes"
        }
      ],
      "name": "safeTransferFrom",
      "outputs": [],
      "stateMutability": "nonpayable",
      "type": "function"
    },
    {
      "inputs": [
        {
          "internalType": "address",
          "name": "operator",
          "type": "address"
        },
        {
          "internalType": "bool",
          "name": "approved",
          "type": "bool"
        }
      ],
      "name": "setApprovalForAll",
      "outputs": [],
      "stateMutability": "nonpayable",
      "type": "function"
    },
    {
      "inputs": [
        {
          "internalType": "bytes4",
          "name": "interfaceId",
          "type": "bytes4"
        }
      ],
      "name": "supportsInterface",
      "outputs": [
        {
          "internalType": "bool",
          "name": "",
          "type": "bool"
        }
      ],
      "stateMutability": "view",
      "type": "function"
    },
    {
      "inputs": [],
      "name": "symbol",
      "outputs": [
        {
          "internalType": "string",
          "name": "",
          "type": "string"
        }
      ],
      "stateMutability": "view",
      "type": "function"
    },
    {
      "inputs": [
        {
          "internalType": "uint256",
          "name": "index",
          "type": "uint256"
        }
      ],
      "name": "tokenByIndex",
      "outputs": [
        {
          "internalType": "uint256",
          "name": "",
          "type": "uint256"
        }
      ],
      "stateMutability": "view",
      "type": "function"
    },
    {
      "inputs": [
        {
          "internalType": "address",
          "name": "owner",
          "type": "address"
        },
        {
          "internalType": "uint256",
          "name": "index",
          "type": "uint256"
        }
      ],
      "name": "tokenOfOwnerByIndex",
      "outputs": [
        {
          "internalType": "uint256",
          "name": "",
          "type": "uint256"
        }
      ],
      "stateMutability": "view",
      "type": "function"
    },
    {
      "inputs": [
        {
          "internalType": "uint256",
          "name": "tokenId",
          "type": "uint256"
        }
      ],
      "name": "tokenURI",
      "outputs": [
        {
          "internalType": "string",
          "name": "",
          "type": "string"
        }
      ],
      "stateMutability": "view",
      "type": "function"
    },
    {
      "inputs": [],
      "name": "totalSupply",
      "outputs": [
        {
          "internalType": "uint256",
          "name": "",
          "type": "uint256"
        }
      ],
      "stateMutability": "view",
      "type": "function"
    },
    {
      "inputs": [
        {
          "internalType": "uint256",
          "name": "tokenId",
          "type": "uint256"
        },
        {
          "internalType": "address",
          "name": "to",
          "type": "address"
        }
      ],
      "name": "transfer",
      "outputs": [],
      "stateMutability": "nonpayable",
      "type": "function"
    },
    {
      "inputs": [
        {
          "internalType": "address",
          "name": "from",
          "type": "address"
        },
        {
          "internalType": "address",
          "name": "to",
          "type": "address"
        },
        {
          "internalType": "uint256",
          "name": "tokenId",
          "type": "uint256"
        }
      ],
      "name": "transferFrom",
      "outputs": [],
      "stateMutability": "nonpayable",
      "type": "function"
    }
  ],
  "bytecode": "0x60806040523480156200001157600080fd5b50604051620048e0380380620048e083398181016040528101906200003791906200035a565b818181600190805190602001906200005192919062000221565b5080600290805190602001906200006a92919062000221565b5050506200009f7f9f2df0fed2c77648de5860a4cc508cd0818c85b8b8a1ab4ceeef8d981c8956a684620000a860201b60201c565b505050620005a0565b620000ba8282620000be60201b60201c565b5050565b620000d08282620001af60201b60201c565b620001ab57600160008084815260200190815260200160002060000160008373ffffffffffffffffffffffffffffffffffffffff1673ffffffffffffffffffffffffffffffffffffffff16815260200190815260200160002060006101000a81548160ff021916908315150217905550620001506200021960201b60201c565b73ffffffffffffffffffffffffffffffffffffffff168173ffffffffffffffffffffffffffffffffffffffff16837f2f8788117e7eff1d82e926ec794901d17c78024a50270940304540a733656f0d60405160405180910390a45b5050565b600080600084815260200190815260200160002060000160008373ffffffffffffffffffffffffffffffffffffffff1673ffffffffffffffffffffffffffffffffffffffff16815260200190815260200160002060009054906101000a900460ff16905092915050565b600033905090565b8280546200022f90620004ab565b90600052602060002090601f0160209004810192826200025357600085556200029f565b82601f106200026e57805160ff19168380011785556200029f565b828001600101855582156200029f579182015b828111156200029e57825182559160200191906001019062000281565b5b509050620002ae9190620002b2565b5090565b5b80821115620002cd576000816000905550600101620002b3565b5090565b6000620002e8620002e2846200040b565b620003e2565b9050828152602081018484840111156200030157600080fd5b6200030e84828562000475565b509392505050565b600081519050620003278162000586565b92915050565b600082601f8301126200033f57600080fd5b815162000351848260208601620002d1565b91505092915050565b6000806000606084860312156200037057600080fd5b6000620003808682870162000316565b935050602084015167ffffffffffffffff8111156200039e57600080fd5b620003ac868287016200032d565b925050604084015167ffffffffffffffff811115620003ca57600080fd5b620003d8868287016200032d565b9150509250925092565b6000620003ee62000401565b9050620003fc8282620004e1565b919050565b6000604051905090565b600067ffffffffffffffff82111562000429576200042862000546565b5b620004348262000575565b9050602081019050919050565b60006200044e8262000455565b9050919050565b600073ffffffffffffffffffffffffffffffffffffffff82169050919050565b60005b838110156200049557808201518184015260208101905062000478565b83811115620004a5576000848401525b50505050565b60006002820490506001821680620004c457607f821691505b60208210811415620004db57620004da62000517565b5b50919050565b620004ec8262000575565b810181811067ffffffffffffffff821117156200050e576200050d62000546565b5b80604052505050565b7f4e487b7100000000000000000000000000000000000000000000000000000000600052602260045260246000fd5b7f4e487b7100000000000000000000000000000000000000000000000000000000600052604160045260246000fd5b6000601f19601f8301169050919050565b620005918162000441565b81146200059d57600080fd5b50565b61433080620005b06000396000f3fe608060405234801561001057600080fd5b50600436106101a95760003560e01c80634f6ccce7116100f9578063a22cb46511610097578063c87b56dd11610071578063c87b56dd14610504578063d539139314610534578063d547741f14610552578063e985e9c51461056e576101a9565b8063a22cb465146104b0578063b7760c8f146104cc578063b88d4fde146104e8576101a9565b806391d14854116100d357806391d148541461042657806395d89b411461045657806395dc3b3c14610474578063a217fddf14610492576101a9565b80634f6ccce7146103965780636352211e146103c657806370a08231146103f6576101a9565b806323b872dd116101665780632f745c59116101405780632f745c59146102fe57806330f487e21461032e57806336568abe1461035e57806342842e0e1461037a576101a9565b806323b872dd14610296578063248a9ca3146102b25780632f2ff15d146102e2576101a9565b806301382807146101ae57806301ffc9a7146101de57806306fdde031461020e578063081812fc1461022c578063095ea7b31461025c57806318160ddd14610278575b600080fd5b6101c860048036038101906101c39190612e09565b61059e565b6040516101d591906137da565b60405180910390f35b6101f860048036038101906101f39190612efe565b61061a565b6040516102059190613502565b60405180910390f35b61021661062c565b6040516102239190613538565b60405180910390f35b61024660048036038101906102419190612f50565b6106be565b6040516102539190613479565b60405180910390f35b61027660048036038101906102719190612e5d565b610743565b005b61028061085b565b60405161028d91906137da565b60405180910390f35b6102b060048036038101906102ab9190612d03565b610868565b005b6102cc60048036038101906102c79190612e99565b6108c8565b6040516102d9919061351d565b60405180910390f35b6102fc60048036038101906102f79190612ec2565b6108e7565b005b61031860048036038101906103139190612e5d565b610910565b60405161032591906137da565b60405180910390f35b61034860048036038101906103439190612c9e565b6109b5565b60405161035591906134e0565b60405180910390f35b61037860048036038101906103739190612ec2565b610b39565b005b610394600480360381019061038f9190612d03565b610bbc565b005b6103b060048036038101906103ab9190612f50565b610bdc565b6040516103bd91906137da565b60405180910390f35b6103e060048036038101906103db9190612f50565b610c73565b6040516103ed9190613479565b60405180910390f35b610410600480360381019061040b9190612c9e565b610d25565b60405161041d91906137da565b60405180910390f35b610440600480360381019061043b9190612ec2565b610ddd565b60405161044d9190613502565b60405180910390f35b61045e610e47565b60405161046b9190613538565b60405180910390f35b61047c610ed9565b60405161048991906137da565b60405180910390f35b61049a610ee8565b6040516104a7919061351d565b60405180910390f35b6104ca60048036038101906104c59190612dcd565b610eef565b005b6104e660048036038101906104e19190612f79565b610f05565b005b61050260048036038101906104fd9190612d52565b610f22565b005b61051e60048036038101906105199190612f50565b610f84565b60405161052b9190613538565b60405180910390f35b61053c610f96565b604051610549919061351d565b60405180910390f35b61056c60048036038101906105679190612ec2565b610fba565b005b61058860048036038101906105839190612cc7565b610fe3565b6040516105959190613502565b60405180910390f35b60007f9f2df0fed2c77648de5860a4cc508cd0818c85b8b8a1ab4ceeef8d981c8956a66105d2816105cd611077565b61107f565b6105dc600c61111c565b600033905060006105ed600c611132565b90506105f98282611140565b610603818661130e565b61060e828783610868565b80935050505092915050565b600061062582611382565b9050919050565b60606001805461063b90613af7565b80601f016020809104026020016040519081016040528092919081815260200182805461066790613af7565b80156106b45780601f10610689576101008083540402835291602001916106b4565b820191906000526020600020905b81548152906001019060200180831161069757829003601f168201915b5050505050905090565b60006106c9826113fc565b610708576040517f08c379a00000000000000000000000000000000000000000000000000000000081526004016106ff906136fa565b60405180910390fd5b6005600083815260200190815260200160002060009054906101000a900473ffffffffffffffffffffffffffffffffffffffff169050919050565b600061074e82610c73565b90508073ffffffffffffffffffffffffffffffffffffffff168373ffffffffffffffffffffffffffffffffffffffff1614156107bf576040517f08c379a00000000000000000000000000000000000000000000000000000000081526004016107b69061375a565b60405180910390fd5b8073ffffffffffffffffffffffffffffffffffffffff166107de611077565b73ffffffffffffffffffffffffffffffffffffffff16148061080d575061080c81610807611077565b610fe3565b5b61084c576040517f08c379a00000000000000000000000000000000000000000000000000000000081526004016108439061363a565b60405180910390fd5b6108568383611468565b505050565b6000600a80549050905090565b610879610873611077565b82611521565b6108b8576040517f08c379a00000000000000000000000000000000000000000000000000000000081526004016108af9061377a565b60405180910390fd5b6108c38383836115ff565b505050565b6000806000838152602001908152602001600020600101549050919050565b6108f0826108c8565b610901816108fc611077565b61107f565b61090b838361185b565b505050565b600061091b83610d25565b821061095c576040517f08c379a00000000000000000000000000000000000000000000000000000000081526004016109539061357a565b60405180910390fd5b600860008473ffffffffffffffffffffffffffffffffffffffff1673ffffffffffffffffffffffffffffffffffffffff168152602001908152602001600020600083815260200190815260200160002054905092915050565b606060006109c283610d25565b90506000811415610a4557600067ffffffffffffffff811115610a0e577f4e487b7100000000000000000000000000000000000000000000000000000000600052604160045260246000fd5b604051908082528060200260200182016040528015610a3c5781602001602082028036833780820191505090505b50915050610b34565b60008167ffffffffffffffff811115610a87577f4e487b7100000000000000000000000000000000000000000000000000000000600052604160045260246000fd5b604051908082528060200260200182016040528015610ab55781602001602082028036833780820191505090505b50905060005b610ac485610d25565b811015610b2d57610ad58582610910565b828281518110610b0e577f4e487b7100000000000000000000000000000000000000000000000000000000600052603260045260246000fd5b6020026020010181815250508080610b2590613b5a565b915050610abb565b5080925050505b919050565b610b41611077565b73ffffffffffffffffffffffffffffffffffffffff168173ffffffffffffffffffffffffffffffffffffffff1614610bae576040517f08c379a0000000000000000000000000000000000000000000000000000000008152600401610ba5906137ba565b60405180910390fd5b610bb8828261193b565b5050565b610bd783838360405180602001604052806000815250610f22565b505050565b6000610be661085b565b8210610c27576040517f08c379a0000000000000000000000000000000000000000000000000000000008152600401610c1e9061379a565b60405180910390fd5b600a8281548110610c61577f4e487b7100000000000000000000000000000000000000000000000000000000600052603260045260246000fd5b90600052602060002001549050919050565b6000806003600084815260200190815260200160002060009054906101000a900473ffffffffffffffffffffffffffffffffffffffff169050600073ffffffffffffffffffffffffffffffffffffffff168173ffffffffffffffffffffffffffffffffffffffff161415610d1c576040517f08c379a0000000000000000000000000000000000000000000000000000000008152600401610d139061367a565b60405180910390fd5b80915050919050565b60008073ffffffffffffffffffffffffffffffffffffffff168273ffffffffffffffffffffffffffffffffffffffff161415610d96576040517f08c379a0000000000000000000000000000000000000000000000000000000008152600401610d8d9061365a565b60405180910390fd5b600460008373ffffffffffffffffffffffffffffffffffffffff1673ffffffffffffffffffffffffffffffffffffffff168152602001908152602001600020549050919050565b600080600084815260200190815260200160002060000160008373ffffffffffffffffffffffffffffffffffffffff1673ffffffffffffffffffffffffffffffffffffffff16815260200190815260200160002060009054906101000a900460ff16905092915050565b606060028054610e5690613af7565b80601f0160208091040260200160405190810160405280929190818152602001828054610e8290613af7565b8015610ecf5780601f10610ea457610100808354040283529160200191610ecf565b820191906000526020600020905b815481529060010190602001808311610eb257829003601f168201915b5050505050905090565b6000610ee361085b565b905090565b6000801b81565b610f01610efa611077565b8383611a1c565b5050565b6000610f1083610c73565b9050610f1d818385610868565b505050565b610f33610f2d611077565b83611521565b610f72576040517f08c379a0000000000000000000000000000000000000000000000000000000008152600401610f699061377a565b60405180910390fd5b610f7e84848484611b89565b50505050565b6060610f8f82611be5565b9050919050565b7f9f2df0fed2c77648de5860a4cc508cd0818c85b8b8a1ab4ceeef8d981c8956a681565b610fc3826108c8565b610fd481610fcf611077565b61107f565b610fde838361193b565b505050565b6000600660008473ffffffffffffffffffffffffffffffffffffffff1673ffffffffffffffffffffffffffffffffffffffff16815260200190815260200160002060008373ffffffffffffffffffffffffffffffffffffffff1673ffffffffffffffffffffffffffffffffffffffff16815260200190815260200160002060009054906101000a900460ff16905092915050565b600033905090565b6110898282610ddd565b611118576110ae8173ffffffffffffffffffffffffffffffffffffffff166014611d37565b6110bc8360001c6020611d37565b6040516020016110cd92919061343f565b6040516020818303038152906040526040517f08c379a000000000000000000000000000000000000000000000000000000000815260040161110f9190613538565b60405180910390fd5b5050565b6001816000016000828254019250508190555050565b600081600001549050919050565b600073ffffffffffffffffffffffffffffffffffffffff168273ffffffffffffffffffffffffffffffffffffffff1614156111b0576040517f08c379a00000000000000000000000000000000000000000000000000000000081526004016111a7906136ba565b60405180910390fd5b6111b9816113fc565b156111f9576040517f08c379a00000000000000000000000000000000000000000000000000000000081526004016111f0906135ba565b60405180910390fd5b61120560008383612031565b6001600460008473ffffffffffffffffffffffffffffffffffffffff1673ffffffffffffffffffffffffffffffffffffffff168152602001908152602001600020600082825461125591906138f8565b92505081905550816003600083815260200190815260200160002060006101000a81548173ffffffffffffffffffffffffffffffffffffffff021916908373ffffffffffffffffffffffffffffffffffffffff160217905550808273ffffffffffffffffffffffffffffffffffffffff16600073ffffffffffffffffffffffffffffffffffffffff167fddf252ad1be2c89b69c2b068fc378daa952ba7f163c4a11628f55a4df523b3ef60405160405180910390a45050565b611317826113fc565b611356576040517f08c379a000000000000000000000000000000000000000000000000000000000815260040161134d9061369a565b60405180910390fd5b8060076000848152602001908152602001600020908051906020019061137d929190612aad565b505050565b60007f780e9d63000000000000000000000000000000000000000000000000000000007bffffffffffffffffffffffffffffffffffffffffffffffffffffffff1916827bffffffffffffffffffffffffffffffffffffffffffffffffffffffff191614806113f557506113f482612041565b5b9050919050565b60008073ffffffffffffffffffffffffffffffffffffffff166003600084815260200190815260200160002060009054906101000a900473ffffffffffffffffffffffffffffffffffffffff1673ffffffffffffffffffffffffffffffffffffffff1614159050919050565b816005600083815260200190815260200160002060006101000a81548173ffffffffffffffffffffffffffffffffffffffff021916908373ffffffffffffffffffffffffffffffffffffffff160217905550808273ffffffffffffffffffffffffffffffffffffffff166114db83610c73565b73ffffffffffffffffffffffffffffffffffffffff167f8c5be1e5ebec7d5bd14f71427d1e84f3dd0314c0f7b2291e5b200ac8c7c3b92560405160405180910390a45050565b600061152c826113fc565b61156b576040517f08c379a00000000000000000000000000000000000000000000000000000000081526004016115629061361a565b60405180910390fd5b600061157683610c73565b90508073ffffffffffffffffffffffffffffffffffffffff168473ffffffffffffffffffffffffffffffffffffffff1614806115e557508373ffffffffffffffffffffffffffffffffffffffff166115cd846106be565b73ffffffffffffffffffffffffffffffffffffffff16145b806115f657506115f58185610fe3565b5b91505092915050565b8273ffffffffffffffffffffffffffffffffffffffff1661161f82610c73565b73ffffffffffffffffffffffffffffffffffffffff1614611675576040517f08c379a000000000000000000000000000000000000000000000000000000000815260040161166c9061371a565b60405180910390fd5b600073ffffffffffffffffffffffffffffffffffffffff168273ffffffffffffffffffffffffffffffffffffffff1614156116e5576040517f08c379a00000000000000000000000000000000000000000000000000000000081526004016116dc906135da565b60405180910390fd5b6116f0838383612031565b6116fb600082611468565b6001600460008573ffffffffffffffffffffffffffffffffffffffff1673ffffffffffffffffffffffffffffffffffffffff168152602001908152602001600020600082825461174b91906139d9565b925050819055506001600460008473ffffffffffffffffffffffffffffffffffffffff1673ffffffffffffffffffffffffffffffffffffffff16815260200190815260200160002060008282546117a291906138f8565b92505081905550816003600083815260200190815260200160002060006101000a81548173ffffffffffffffffffffffffffffffffffffffff021916908373ffffffffffffffffffffffffffffffffffffffff160217905550808273ffffffffffffffffffffffffffffffffffffffff168473ffffffffffffffffffffffffffffffffffffffff167fddf252ad1be2c89b69c2b068fc378daa952ba7f163c4a11628f55a4df523b3ef60405160405180910390a4505050565b6118658282610ddd565b61193757600160008084815260200190815260200160002060000160008373ffffffffffffffffffffffffffffffffffffffff1673ffffffffffffffffffffffffffffffffffffffff16815260200190815260200160002060006101000a81548160ff0219169083151502179055506118dc611077565b73ffffffffffffffffffffffffffffffffffffffff168173ffffffffffffffffffffffffffffffffffffffff16837f2f8788117e7eff1d82e926ec794901d17c78024a50270940304540a733656f0d60405160405180910390a45b5050565b6119458282610ddd565b15611a1857600080600084815260200190815260200160002060000160008373ffffffffffffffffffffffffffffffffffffffff1673ffffffffffffffffffffffffffffffffffffffff16815260200190815260200160002060006101000a81548160ff0219169083151502179055506119bd611077565b73ffffffffffffffffffffffffffffffffffffffff168173ffffffffffffffffffffffffffffffffffffffff16837ff6391f5c32d9c69d2a47ea670b442974b53935d1edc7fd64eb21e047a839171b60405160405180910390a45b5050565b8173ffffffffffffffffffffffffffffffffffffffff168373ffffffffffffffffffffffffffffffffffffffff161415611a8b576040517f08c379a0000000000000000000000000000000000000000000000000000000008152600401611a82906135fa565b60405180910390fd5b80600660008573ffffffffffffffffffffffffffffffffffffffff1673ffffffffffffffffffffffffffffffffffffffff16815260200190815260200160002060008473ffffffffffffffffffffffffffffffffffffffff1673ffffffffffffffffffffffffffffffffffffffff16815260200190815260200160002060006101000a81548160ff0219169083151502179055508173ffffffffffffffffffffffffffffffffffffffff168373ffffffffffffffffffffffffffffffffffffffff167f17307eab39ab6107e8899845ad3d59bd9653f200f220920489ca2b5937696c3183604051611b7c9190613502565b60405180910390a3505050565b611b948484846115ff565b611ba084848484612123565b611bdf576040517f08c379a0000000000000000000000000000000000000000000000000000000008152600401611bd69061359a565b60405180910390fd5b50505050565b6060611bf0826113fc565b611c2f576040517f08c379a0000000000000000000000000000000000000000000000000000000008152600401611c26906136da565b60405180910390fd5b6000600760008481526020019081526020016000208054611c4f90613af7565b80601f0160208091040260200160405190810160405280929190818152602001828054611c7b90613af7565b8015611cc85780601f10611c9d57610100808354040283529160200191611cc8565b820191906000526020600020905b815481529060010190602001808311611cab57829003601f168201915b505050505090506000611cd96122ba565b9050600081511415611cef578192505050611d32565b600082511115611d24578082604051602001611d0c92919061341b565b60405160208183030381529060405292505050611d32565b611d2d846122d1565b925050505b919050565b606060006002836002611d4a919061397f565b611d5491906138f8565b67ffffffffffffffff811115611d93577f4e487b7100000000000000000000000000000000000000000000000000000000600052604160045260246000fd5b6040519080825280601f01601f191660200182016040528015611dc55781602001600182028036833780820191505090505b5090507f300000000000000000000000000000000000000000000000000000000000000081600081518110611e23577f4e487b7100000000000000000000000000000000000000000000000000000000600052603260045260246000fd5b60200101907effffffffffffffffffffffffffffffffffffffffffffffffffffffffffffff1916908160001a9053507f780000000000000000000000000000000000000000000000000000000000000081600181518110611ead577f4e487b7100000000000000000000000000000000000000000000000000000000600052603260045260246000fd5b60200101907effffffffffffffffffffffffffffffffffffffffffffffffffffffffffffff1916908160001a90535060006001846002611eed919061397f565b611ef791906138f8565b90505b6001811115611fe3577f3031323334353637383961626364656600000000000000000000000000000000600f861660108110611f5f577f4e487b7100000000000000000000000000000000000000000000000000000000600052603260045260246000fd5b1a60f81b828281518110611f9c577f4e487b7100000000000000000000000000000000000000000000000000000000600052603260045260246000fd5b60200101907effffffffffffffffffffffffffffffffffffffffffffffffffffffffffffff1916908160001a905350600485901c945080611fdc90613acd565b9050611efa565b5060008414612027576040517f08c379a000000000000000000000000000000000000000000000000000000000815260040161201e9061355a565b60405180910390fd5b8091505092915050565b61203c838383612378565b505050565b60007f80ac58cd000000000000000000000000000000000000000000000000000000007bffffffffffffffffffffffffffffffffffffffffffffffffffffffff1916827bffffffffffffffffffffffffffffffffffffffffffffffffffffffff1916148061210c57507f5b5e139f000000000000000000000000000000000000000000000000000000007bffffffffffffffffffffffffffffffffffffffffffffffffffffffff1916827bffffffffffffffffffffffffffffffffffffffffffffffffffffffff1916145b8061211c575061211b8261248c565b5b9050919050565b60006121448473ffffffffffffffffffffffffffffffffffffffff16612506565b156122ad578373ffffffffffffffffffffffffffffffffffffffff1663150b7a0261216d611077565b8786866040518563ffffffff1660e01b815260040161218f9493929190613494565b602060405180830381600087803b1580156121a957600080fd5b505af19250505080156121da57506040513d601f19601f820116820180604052508101906121d79190612f27565b60015b61225d573d806000811461220a576040519150601f19603f3d011682016040523d82523d6000602084013e61220f565b606091505b50600081511415612255576040517f08c379a000000000000000000000000000000000000000000000000000000000815260040161224c9061359a565b60405180910390fd5b805181602001fd5b63150b7a0260e01b7bffffffffffffffffffffffffffffffffffffffffffffffffffffffff1916817bffffffffffffffffffffffffffffffffffffffffffffffffffffffff1916149150506122b2565b600190505b949350505050565b606060405180602001604052806000815250905090565b60606122dc826113fc565b61231b576040517f08c379a00000000000000000000000000000000000000000000000000000000081526004016123129061373a565b60405180910390fd5b60006123256122ba565b905060008151116123455760405180602001604052806000815250612370565b8061234f84612519565b60405160200161236092919061341b565b6040516020818303038152906040525b915050919050565b6123838383836126c6565b600073ffffffffffffffffffffffffffffffffffffffff168373ffffffffffffffffffffffffffffffffffffffff1614156123c6576123c1816126cb565b612405565b8173ffffffffffffffffffffffffffffffffffffffff168373ffffffffffffffffffffffffffffffffffffffff1614612404576124038382612714565b5b5b600073ffffffffffffffffffffffffffffffffffffffff168273ffffffffffffffffffffffffffffffffffffffff1614156124485761244381612881565b612487565b8273ffffffffffffffffffffffffffffffffffffffff168273ffffffffffffffffffffffffffffffffffffffff16146124865761248582826129c4565b5b5b505050565b60007f7965db0b000000000000000000000000000000000000000000000000000000007bffffffffffffffffffffffffffffffffffffffffffffffffffffffff1916827bffffffffffffffffffffffffffffffffffffffffffffffffffffffff191614806124ff57506124fe82612a43565b5b9050919050565b600080823b905060008111915050919050565b60606000821415612561576040518060400160405280600181526020017f300000000000000000000000000000000000000000000000000000000000000081525090506126c1565b600082905060005b6000821461259357808061257c90613b5a565b915050600a8261258c919061394e565b9150612569565b60008167ffffffffffffffff8111156125d5577f4e487b7100000000000000000000000000000000000000000000000000000000600052604160045260246000fd5b6040519080825280601f01601f1916602001820160405280156126075781602001600182028036833780820191505090505b5090505b600085146126ba5760018261262091906139d9565b9150600a8561262f9190613ba3565b603061263b91906138f8565b60f81b818381518110612677577f4e487b7100000000000000000000000000000000000000000000000000000000600052603260045260246000fd5b60200101907effffffffffffffffffffffffffffffffffffffffffffffffffffffffffffff1916908160001a905350600a856126b3919061394e565b945061260b565b8093505050505b919050565b505050565b600a80549050600b600083815260200190815260200160002081905550600a81908060018154018082558091505060019003906000526020600020016000909190919091505550565b6000600161272184610d25565b61272b91906139d9565b9050600060096000848152602001908152602001600020549050818114612810576000600860008673ffffffffffffffffffffffffffffffffffffffff1673ffffffffffffffffffffffffffffffffffffffff168152602001908152602001600020600084815260200190815260200160002054905080600860008773ffffffffffffffffffffffffffffffffffffffff1673ffffffffffffffffffffffffffffffffffffffff168152602001908152602001600020600084815260200190815260200160002081905550816009600083815260200190815260200160002081905550505b6009600084815260200190815260200160002060009055600860008573ffffffffffffffffffffffffffffffffffffffff1673ffffffffffffffffffffffffffffffffffffffff16815260200190815260200160002060008381526020019081526020016000206000905550505050565b60006001600a8054905061289591906139d9565b90506000600b60008481526020019081526020016000205490506000600a83815481106128eb577f4e487b7100000000000000000000000000000000000000000000000000000000600052603260045260246000fd5b9060005260206000200154905080600a8381548110612933577f4e487b7100000000000000000000000000000000000000000000000000000000600052603260045260246000fd5b906000526020600020018190555081600b600083815260200190815260200160002081905550600b600085815260200190815260200160002060009055600a8054806129a8577f4e487b7100000000000000000000000000000000000000000000000000000000600052603160045260246000fd5b6001900381819060005260206000200160009055905550505050565b60006129cf83610d25565b905081600860008573ffffffffffffffffffffffffffffffffffffffff1673ffffffffffffffffffffffffffffffffffffffff168152602001908152602001600020600083815260200190815260200160002081905550806009600084815260200190815260200160002081905550505050565b60007f01ffc9a7000000000000000000000000000000000000000000000000000000007bffffffffffffffffffffffffffffffffffffffffffffffffffffffff1916827bffffffffffffffffffffffffffffffffffffffffffffffffffffffff1916149050919050565b828054612ab990613af7565b90600052602060002090601f016020900481019282612adb5760008555612b22565b82601f10612af457805160ff1916838001178555612b22565b82800160010185558215612b22579182015b82811115612b21578251825591602001919060010190612b06565b5b509050612b2f9190612b33565b5090565b5b80821115612b4c576000816000905550600101612b34565b5090565b6000612b63612b5e8461381a565b6137f5565b905082815260208101848484011115612b7b57600080fd5b612b86848285613a8b565b509392505050565b6000612ba1612b9c8461384b565b6137f5565b905082815260208101848484011115612bb957600080fd5b612bc4848285613a8b565b509392505050565b600081359050612bdb81614287565b92915050565b600081359050612bf08161429e565b92915050565b600081359050612c05816142b5565b92915050565b600081359050612c1a816142cc565b92915050565b600081519050612c2f816142cc565b92915050565b600082601f830112612c4657600080fd5b8135612c56848260208601612b50565b91505092915050565b600082601f830112612c7057600080fd5b8135612c80848260208601612b8e565b91505092915050565b600081359050612c98816142e3565b92915050565b600060208284031215612cb057600080fd5b6000612cbe84828501612bcc565b91505092915050565b60008060408385031215612cda57600080fd5b6000612ce885828601612bcc565b9250506020612cf985828601612bcc565b9150509250929050565b600080600060608486031215612d1857600080fd5b6000612d2686828701612bcc565b9350506020612d3786828701612bcc565b9250506040612d4886828701612c89565b9150509250925092565b60008060008060808587031215612d6857600080fd5b6000612d7687828801612bcc565b9450506020612d8787828801612bcc565b9350506040612d9887828801612c89565b925050606085013567ffffffffffffffff811115612db557600080fd5b612dc187828801612c35565b91505092959194509250565b60008060408385031215612de057600080fd5b6000612dee85828601612bcc565b9250506020612dff85828601612be1565b9150509250929050565b60008060408385031215612e1c57600080fd5b6000612e2a85828601612bcc565b925050602083013567ffffffffffffffff811115612e4757600080fd5b612e5385828601612c5f565b9150509250929050565b60008060408385031215612e7057600080fd5b6000612e7e85828601612bcc565b9250506020612e8f85828601612c89565b9150509250929050565b600060208284031215612eab57600080fd5b6000612eb984828501612bf6565b91505092915050565b60008060408385031215612ed557600080fd5b6000612ee385828601612bf6565b9250506020612ef485828601612bcc565b9150509250929050565b600060208284031215612f1057600080fd5b6000612f1e84828501612c0b565b91505092915050565b600060208284031215612f3957600080fd5b6000612f4784828501612c20565b91505092915050565b600060208284031215612f6257600080fd5b6000612f7084828501612c89565b91505092915050565b60008060408385031215612f8c57600080fd5b6000612f9a85828601612c89565b9250506020612fab85828601612bcc565b9150509250929050565b6000612fc183836133fd565b60208301905092915050565b612fd681613a0d565b82525050565b6000612fe78261388c565b612ff181856138ba565b9350612ffc8361387c565b8060005b8381101561302d5781516130148882612fb5565b975061301f836138ad565b925050600181019050613000565b5085935050505092915050565b61304381613a1f565b82525050565b61305281613a2b565b82525050565b600061306382613897565b61306d81856138cb565b935061307d818560208601613a9a565b61308681613c90565b840191505092915050565b600061309c826138a2565b6130a681856138dc565b93506130b6818560208601613a9a565b6130bf81613c90565b840191505092915050565b60006130d5826138a2565b6130df81856138ed565b93506130ef818560208601613a9a565b80840191505092915050565b60006131086020836138dc565b915061311382613ca1565b602082019050919050565b600061312b602b836138dc565b915061313682613cca565b604082019050919050565b600061314e6032836138dc565b915061315982613d19565b604082019050919050565b6000613171601c836138dc565b915061317c82613d68565b602082019050919050565b60006131946024836138dc565b915061319f82613d91565b604082019050919050565b60006131b76019836138dc565b91506131c282613de0565b602082019050919050565b60006131da602c836138dc565b91506131e582613e09565b604082019050919050565b60006131fd6038836138dc565b915061320882613e58565b604082019050919050565b6000613220602a836138dc565b915061322b82613ea7565b604082019050919050565b60006132436029836138dc565b915061324e82613ef6565b604082019050919050565b6000613266602e836138dc565b915061327182613f45565b604082019050919050565b60006132896020836138dc565b915061329482613f94565b602082019050919050565b60006132ac6031836138dc565b91506132b782613fbd565b604082019050919050565b60006132cf602c836138dc565b91506132da8261400c565b604082019050919050565b60006132f26029836138dc565b91506132fd8261405b565b604082019050919050565b6000613315602f836138dc565b9150613320826140aa565b604082019050919050565b60006133386021836138dc565b9150613343826140f9565b604082019050919050565b600061335b6031836138dc565b915061336682614148565b604082019050919050565b600061337e602c836138dc565b915061338982614197565b604082019050919050565b60006133a16017836138ed565b91506133ac826141e6565b601782019050919050565b60006133c46011836138ed565b91506133cf8261420f565b601182019050919050565b60006133e7602f836138dc565b91506133f282614238565b604082019050919050565b61340681613a81565b82525050565b61341581613a81565b82525050565b600061342782856130ca565b915061343382846130ca565b91508190509392505050565b600061344a82613394565b915061345682856130ca565b9150613461826133b7565b915061346d82846130ca565b91508190509392505050565b600060208201905061348e6000830184612fcd565b92915050565b60006080820190506134a96000830187612fcd565b6134b66020830186612fcd565b6134c3604083018561340c565b81810360608301526134d58184613058565b905095945050505050565b600060208201905081810360008301526134fa8184612fdc565b905092915050565b6000602082019050613517600083018461303a565b92915050565b60006020820190506135326000830184613049565b92915050565b600060208201905081810360008301526135528184613091565b905092915050565b60006020820190508181036000830152613573816130fb565b9050919050565b600060208201905081810360008301526135938161311e565b9050919050565b600060208201905081810360008301526135b381613141565b9050919050565b600060208201905081810360008301526135d381613164565b9050919050565b600060208201905081810360008301526135f381613187565b9050919050565b60006020820190508181036000830152613613816131aa565b9050919050565b60006020820190508181036000830152613633816131cd565b9050919050565b60006020820190508181036000830152613653816131f0565b9050919050565b6000602082019050818103600083015261367381613213565b9050919050565b6000602082019050818103600083015261369381613236565b9050919050565b600060208201905081810360008301526136b381613259565b9050919050565b600060208201905081810360008301526136d38161327c565b9050919050565b600060208201905081810360008301526136f38161329f565b9050919050565b60006020820190508181036000830152613713816132c2565b9050919050565b60006020820190508181036000830152613733816132e5565b9050919050565b6000602082019050818103600083015261375381613308565b9050919050565b600060208201905081810360008301526137738161332b565b9050919050565b600060208201905081810360008301526137938161334e565b9050919050565b600060208201905081810360008301526137b381613371565b9050919050565b600060208201905081810360008301526137d3816133da565b9050919050565b60006020820190506137ef600083018461340c565b92915050565b60006137ff613810565b905061380b8282613b29565b919050565b6000604051905090565b600067ffffffffffffffff82111561383557613834613c61565b5b61383e82613c90565b9050602081019050919050565b600067ffffffffffffffff82111561386657613865613c61565b5b61386f82613c90565b9050602081019050919050565b6000819050602082019050919050565b600081519050919050565b600081519050919050565b600081519050919050565b6000602082019050919050565b600082825260208201905092915050565b600082825260208201905092915050565b600082825260208201905092915050565b600081905092915050565b600061390382613a81565b915061390e83613a81565b9250827fffffffffffffffffffffffffffffffffffffffffffffffffffffffffffffffff0382111561394357613942613bd4565b5b828201905092915050565b600061395982613a81565b915061396483613a81565b92508261397457613973613c03565b5b828204905092915050565b600061398a82613a81565b915061399583613a81565b9250817fffffffffffffffffffffffffffffffffffffffffffffffffffffffffffffffff04831182151516156139ce576139cd613bd4565b5b828202905092915050565b60006139e482613a81565b91506139ef83613a81565b925082821015613a0257613a01613bd4565b5b828203905092915050565b6000613a1882613a61565b9050919050565b60008115159050919050565b6000819050919050565b60007fffffffff0000000000000000000000000000000000000000000000000000000082169050919050565b600073ffffffffffffffffffffffffffffffffffffffff82169050919050565b6000819050919050565b82818337600083830152505050565b60005b83811015613ab8578082015181840152602081019050613a9d565b83811115613ac7576000848401525b50505050565b6000613ad882613a81565b91506000821415613aec57613aeb613bd4565b5b600182039050919050565b60006002820490506001821680613b0f57607f821691505b60208210811415613b2357613b22613c32565b5b50919050565b613b3282613c90565b810181811067ffffffffffffffff82111715613b5157613b50613c61565b5b80604052505050565b6000613b6582613a81565b91507fffffffffffffffffffffffffffffffffffffffffffffffffffffffffffffffff821415613b9857613b97613bd4565b5b600182019050919050565b6000613bae82613a81565b9150613bb983613a81565b925082613bc957613bc8613c03565b5b828206905092915050565b7f4e487b7100000000000000000000000000000000000000000000000000000000600052601160045260246000fd5b7f4e487b7100000000000000000000000000000000000000000000000000000000600052601260045260246000fd5b7f4e487b7100000000000000000000000000000000000000000000000000000000600052602260045260246000fd5b7f4e487b7100000000000000000000000000000000000000000000000000000000600052604160045260246000fd5b6000601f19601f8301169050919050565b7f537472696e67733a20686578206c656e67746820696e73756666696369656e74600082015250565b7f455243373231456e756d657261626c653a206f776e657220696e646578206f7560008201527f74206f6620626f756e6473000000000000000000000000000000000000000000602082015250565b7f4552433732313a207472616e7366657220746f206e6f6e20455243373231526560008201527f63656976657220696d706c656d656e7465720000000000000000000000000000602082015250565b7f4552433732313a20746f6b656e20616c7265616479206d696e74656400000000600082015250565b7f4552433732313a207472616e7366657220746f20746865207a65726f2061646460008201527f7265737300000000000000000000000000000000000000000000000000000000602082015250565b7f4552433732313a20617070726f766520746f2063616c6c657200000000000000600082015250565b7f4552433732313a206f70657261746f7220717565727920666f72206e6f6e657860008201527f697374656e7420746f6b656e0000000000000000000000000000000000000000602082015250565b7f4552433732313a20617070726f76652063616c6c6572206973206e6f74206f7760008201527f6e6572206e6f7220617070726f76656420666f7220616c6c0000000000000000602082015250565b7f4552433732313a2062616c616e636520717565727920666f7220746865207a6560008201527f726f206164647265737300000000000000000000000000000000000000000000602082015250565b7f4552433732313a206f776e657220717565727920666f72206e6f6e657869737460008201527f656e7420746f6b656e0000000000000000000000000000000000000000000000602082015250565b7f45524337323155524953746f726167653a2055524920736574206f66206e6f6e60008201527f6578697374656e7420746f6b656e000000000000000000000000000000000000602082015250565b7f4552433732313a206d696e7420746f20746865207a65726f2061646472657373600082015250565b7f45524337323155524953746f726167653a2055524920717565727920666f722060008201527f6e6f6e6578697374656e7420746f6b656e000000000000000000000000000000602082015250565b7f4552433732313a20617070726f76656420717565727920666f72206e6f6e657860008201527f697374656e7420746f6b656e0000000000000000000000000000000000000000602082015250565b7f4552433732313a207472616e73666572206f6620746f6b656e2074686174206960008201527f73206e6f74206f776e0000000000000000000000000000000000000000000000602082015250565b7f4552433732314d657461646174613a2055524920717565727920666f72206e6f60008201527f6e6578697374656e7420746f6b656e0000000000000000000000000000000000602082015250565b7f4552433732313a20617070726f76616c20746f2063757272656e74206f776e6560008201527f7200000000000000000000000000000000000000000000000000000000000000602082015250565b7f4552433732313a207472616e736665722063616c6c6572206973206e6f74206f60008201527f776e6572206e6f7220617070726f766564000000000000000000000000000000602082015250565b7f455243373231456e756d657261626c653a20676c6f62616c20696e646578206f60008201527f7574206f6620626f756e64730000000000000000000000000000000000000000602082015250565b7f416363657373436f6e74726f6c3a206163636f756e7420000000000000000000600082015250565b7f206973206d697373696e6720726f6c6520000000000000000000000000000000600082015250565b7f416363657373436f6e74726f6c3a2063616e206f6e6c792072656e6f756e636560008201527f20726f6c657320666f722073656c660000000000000000000000000000000000602082015250565b61429081613a0d565b811461429b57600080fd5b50565b6142a781613a1f565b81146142b257600080fd5b50565b6142be81613a2b565b81146142c957600080fd5b50565b6142d581613a35565b81146142e057600080fd5b50565b6142ec81613a81565b81146142f757600080fd5b5056fea2646970667358221220860f9e1e627e87a0574ee530128b0343ec84e39419a0db6ca0799ac1e1f67e5a64736f6c63430008040033",
  "linkReferences": {},
  "deployedLinkReferences": {}
}